:100000000C942A000C9434000C9434000C943400AA
:100010000C9434000C9434000C9434000C94340090
:100020000C9434000C9434000C9434000C94340080
:100030000C9434000C9434000C9434000C94340070
:100040000C9434000C9434000C9434000C94340060
:100050000C94340011241FBECFE5D8E0DEBFCDBF25
:100060000E9436000C9452000C9400008AB38F60FA
:100070008ABB8AB38F7E8ABB8BB380618BBB80E0E7
:10008000CC99FECFCC99FCCF8F5F803108F080E017
:100090009BB3292F207F982F9F70922B9BBBCC9BCB
:0800A000FECFEECFF894FFCF74
:00000001FF
