S01200006C63645F6472697665722E73726563F4
S11300000C942A000C943F000C943F000C943F0085
S11300100C943F000C943F000C943F000C943F0060
S11300200C943F000C943F000C943F000C943F0050
S11300300C943F000C943F000C943F000C943F0040
S11300400C943F000C943F000C943F000C943F0030
S11300500C943F0011241FBECFE5D8E0DEBFCDBF16
S113006010E0A0E6B0E0E2E3F6E002C005900D92F5
S1130070AE36B107D9F70E9486020C9417030C948C
S11300800000683008F07CC0843008F07BC0442352
S1130090D9F1413009F078C0813091F028F08230F4
S11300A0D9F0833029F172C02BB381E090E002C013
S11300B0880F991F6A95E2F7822B8BBB80E0089525
S11300C028B381E090E002C0880F991F6A95E2F797
S11300D0822B88BB80E0089525B381E090E002C0C4
S11300E0880F991F6A95E2F7822B85BB80E00895FB
S11300F022B381E090E002C0880F991F6A95E2F76D
S1130100822B82BB80E00895813099F028F0823000
S1130110E9F0833041F13CC02BB381E090E002C0B0
S1130120880F991F6A95E2F7809582238BBB80E044
S1130130089528B381E090E002C0880F991F6A9562
S1130140E2F78095822388BB80E0089525B381E09F
S113015090E002C0880F991F6A95E2F78095822388
S113016085BB80E0089522B381E090E002C0880F4F
S1130170991F6A95E2F78095822382BB80E00895F7
S113018082E0089583E0089581E0089581E0089570
S113019081E00895413029F0E0F1423009F485C04E
S11301A0D0C0813091F028F08230D9F0833029F129
S11301B0CAC02AB381E090E002C0880F991F6A95F3
S11301C0E2F7822B8ABB80E0089527B381E090E0B8
S11301D002C0880F991F6A95E2F7822B87BB80E0E3
S11301E0089524B381E090E002C0880F991F6A95B6
S11301F0E2F7822B84BB80E0089521B381E090E094
S113020002C0880F991F6A95E2F7822B81BB80E0B8
S113021008958130B9F028F0823029F18330A1F1BA
S113022094C02AB381E090E002C0880F991F6A95B8
S1130230E2F78095922F98239ABB9BB389238BBBBB
S113024080E0089527B381E090E002C0880F991FF1
S11302506A95E2F78095922F982397BB98B38923E8
S113026088BB80E0089524B381E090E002C0880F49
S1130270991F6A95E2F78095922F982394BB95B3C2
S1130280892385BB80E0089521B381E090E002C01A
S1130290880F991F6A95E2F78095922F982391BB56
S11302A092B3892382BB80E008958130B9F028F0AD
S11302B0823029F18330A1F14AC02AB381E090E071
S11302C002C0880F991F6A95E2F7982F90959223A0
S11302D09ABB9BB3892B8BBB80E0089527B381E045
S11302E090E002C0880F991F6A95E2F7982F9095C5
S11302F0922397BB98B3892B88BB80E0089524B3DD
S113030081E090E002C0880F991F6A95E2F7982F68
S11303109095922394BB95B3892B85BB80E0089577
S113032021B381E090E002C0880F991F6A95E2F73B
S1130330982F9095922391BB92B3892B82BB80E036
S1130340089581E0089581E0089581E0089581E0B1
S113035008958430A0F4813049F028F0823049F0C7
S1130360833051F00EC06BBB80E0089568BB80E021
S1130370089565BB80E0089562BB80E0089581E044
S1130380089581E0089541E062E081E00E94410027
S1130390000040E062E081E00E94410089EF90E0CB
S11303A00197F1F700C000000895CF93C82F40E0F3
S11303B060E081E00E94410040E061E081E00E9451
S11303C041006C2F80E00E94A9010E94C30183EFC9
S11303D091E00197F1F700C00000CF91089561E02A
S11303E080E00E94D10241E060E081E00E94CA0006
S11303F041E061E081E00E94CA0041E062E081E006
S11304000E94CA0041E060E081E00E94410041E0B6
S113041061E081E00E94410041E062E081E00E94ED
S1130420410083ED90E30197F1F700C0000088E3F9
S11304300E94D5018FE00E94D50181E00E94D50180
S113044086E00E94D5010895CF93C82F41E060E073
S113045081E00E94410040E061E081E00E944100AF
S11304606C2F80E00E94A9010E94C30189EF90E0F3
S11304700197F1F700C00000CF910895CF93DF9367
S1130480EC0103C00E942402219688818111FACFD5
S1130490DF91CF91089581E00E94D50108958111E3
S11304A005C080E8860F0E94D5010895813021F4AB
S11304B080EC860F0E94D501089590E00896880F7D
S11304C0880F880F0E94D50108950F931F93CF932F
S11304D08C01862F0E945D02C0E007C0F801EC0F7A
S11304E0F11D80810E942402CF5FC830B8F3CF9100
S11304F01F910F910895CF93C82F862F642F0E94C8
S11305004F028C2F0E942402CF910895CF93DF9342
S1130510CDB7DEB728970FB6F894DEBF0FBECDBFB8
S11305200E94EF0181E40E9424022FE986E891E011
S1130530215080409040E1F700C0000081E00E941B
S1130540D5012FE986E891E0215080409040E1F701
S113055000C0000067E080E00E944F0288E690E05F
S11305600E943E0288E0E0E6F0E0DE011196019090
S11305700D928A95E1F760E0CE0101960E94650232
S113058041E061E080E00E947B022FE38DE093E094
S1130590215080409040E1F700C000000E944B02CF
S11305A0FFCF8430C0F5813091F028F08230D9F04B
S11305B0833029F132C0662319F0613021F02FC055
S11305C01ABA80E008958FEF8ABB80E0089566230D
S11305D019F0613021F025C017BA80E008958FEF3B
S11305E087BB80E00895662319F0613021F01BC0B9
S11305F014BA80E008958FEF84BB80E008956623E9
S113060019F0613021F011C011BA80E008958FEF24
S113061081BB80E0089583E0089583E0089587E036
S1130620089587E0089587E0089587E00895F89491
S1050630FFCFF6
S1110632000A00110E00000048656C6C6F0099
S9030000FC
