S00E00006C6162395F312E737265631E
S11300000C942A000C9427020C9447000C9447008B
S11300100C9447000C9447000C9447000C94470040
S11300200C9447000C9447000C9447000C94470030
S11300300C9447000C9447000C9447000C94470020
S11300400C9447000C9447000C9447000C94470010
S11300500C94470011241FBECFE5D8E0DEBFCDBF0E
S113006010E0A0E6B0E0E4EEF4E002C005900D92EA
S1130070A036B107D9F720E0A0E6B0E001C01D9298
S1130080A136B207E1F70E945D020C9470020C9451
S11300900000683008F07CC0843008F07BC0442342
S11300A0D9F1413009F078C0813091F028F08230E4
S11300B0D9F0833029F172C02BB381E090E002C003
S11300C0880F991F6A95E2F7822B8BBB80E0089515
S11300D028B381E090E002C0880F991F6A95E2F787
S11300E0822B88BB80E0089525B381E090E002C0B4
S11300F0880F991F6A95E2F7822B85BB80E00895EB
S113010022B381E090E002C0880F991F6A95E2F75C
S1130110822B82BB80E00895813099F028F08230F0
S1130120E9F0833041F13CC02BB381E090E002C0A0
S1130130880F991F6A95E2F7809582238BBB80E034
S1130140089528B381E090E002C0880F991F6A9552
S1130150E2F78095822388BB80E0089525B381E08F
S113016090E002C0880F991F6A95E2F78095822378
S113017085BB80E0089522B381E090E002C0880F3F
S1130180991F6A95E2F78095822382BB80E00895E7
S113019082E0089583E0089581E0089581E0089560
S11301A081E00895413029F0E0F1423009F485C03E
S11301B0D0C0813091F028F08230D9F0833029F119
S11301C0CAC02AB381E090E002C0880F991F6A95E3
S11301D0E2F7822B8ABB80E0089527B381E090E0A8
S11301E002C0880F991F6A95E2F7822B87BB80E0D3
S11301F0089524B381E090E002C0880F991F6A95A6
S1130200E2F7822B84BB80E0089521B381E090E083
S113021002C0880F991F6A95E2F7822B81BB80E0A8
S113022008958130B9F028F0823029F18330A1F1AA
S113023094C02AB381E090E002C0880F991F6A95A8
S1130240E2F78095922F98239ABB9BB389238BBBAB
S113025080E0089527B381E090E002C0880F991FE1
S11302606A95E2F78095922F982397BB98B38923D8
S113027088BB80E0089524B381E090E002C0880F39
S1130280991F6A95E2F78095922F982394BB95B3B2
S1130290892385BB80E0089521B381E090E002C00A
S11302A0880F991F6A95E2F78095922F982391BB46
S11302B092B3892382BB80E008958130B9F028F09D
S11302C0823029F18330A1F14AC02AB381E090E061
S11302D002C0880F991F6A95E2F7982F9095922390
S11302E09ABB9BB3892B8BBB80E0089527B381E035
S11302F090E002C0880F991F6A95E2F7982F9095B5
S1130300922397BB98B3892B88BB80E0089524B3CC
S113031081E090E002C0880F991F6A95E2F7982F58
S11303209095922394BB95B3892B85BB80E0089567
S113033021B381E090E002C0880F991F6A95E2F72B
S1130340982F9095922391BB92B3892B82BB80E026
S1130350089581E0089581E0089581E0089581E0A1
S11303600895789480E008958BB780648BBF80E013
S11303700895813069F120F0823009F451C05FC0E2
S1130380613071F028F0623099F06330C9F059C0DF
S113039085B7816085BF85B7826085BF80E0089599
S11303A085B78E7F85BF85B7826085BF80E008955D
S11303B085B7816085BF85B78D7F85BF80E008954F
S11303C085B78E7F85BF85B78D7F85BF80E0089513
S11303D0613071F028F0623099F06330C9F033C0B5
S11303E085B7846085BF85B7886085BF80E0089540
S11303F085B78B7F85BF85B7886085BF80E008950A
S113040085B7846085BF85B7877F85BF80E0089501
S113041085B78B7F85BF85B7877F85BF80E00895CB
S1130420662319F0613031F010C084B7806484BF52
S113043080E0089584B78F7B84BF80E0089584E0D2
S1130440089583E0089583E0089583E008951F925A
S11304500F920FB60F9211242F933F934F935F93F4
S11304606F937F938F939F93AF93BF93EF93FF9378
S113047080916000811109C041E060E081E00E9448
S1130480490081E08093600007C040E060E081E0C3
S11304900E94490010926000FF91EF91BF91AF91CB
S11304A09F918F917F916F915F914F913F912F9188
S11304B00F900FBE0F901F90189541E060E081E00F
S11304C00E94D20042E062E083E00E94D2000E94D7
S11304D0B10161E080E00E94B9010E94B401FFCF44
S10704E0F894FFCFBA
S9030000FC
