S01100006974695F7461736B332E7372656388
S11300000C942A000C9434000C9434000C943400A6
S11300100C9434000C9434000C9434000C9434008C
S11300200C9434000C9434000C9434000C9434007C
S11300300C9434000C9434000C9434000C9434006C
S11300400C9434000C9434000C9434000C9434005C
S11300500C94340011241FBECFE5D8E0DEBFCDBF21
S11300600E9436000C9452000C94000087B3846004
S113007087BB87B38D7F87BB88B3826088BBB19908
S113008004C088B3846088BB03C088B38B7F88BBFB
S11300902FE38DE093E0215080409040E1F700C0D1
S10B00A00000EDCFF894FFCF3E
S9030000FC
