S01C00006974695F7461736B365F64696F5F6472697665722E73726563F4
S11300000C942A000C9434000C9434000C943400A6
S11300100C9434000C9434000C9434000C9434008C
S11300200C9434000C9434000C9434000C9434007C
S11300300C9434000C9434000C9434000C9434006C
S11300400C9434000C9434000C9434000C9434005C
S11300500C94340011241FBECFE5D8E0DEBFCDBF21
S11300600E94E1010C9410020C940000683008F026
S1130070DDC08130E9F138F0823009F46EC083309C
S113008009F4A0C0D5C0433061F42AB381E090E004
S113009002C0880F991F6A95E2F7822B8ABB80E021
S11300A00895413089F42AB381E090E002C0880FBA
S11300B0991F6A95E2F7982F909592239ABB9BB368
S11300C0892B8BBB80E00895423009F0B3C02AB37A
S11300D081E090E002C0880F991F6A95E2F780954D
S11300E0922F98239ABB9BB389238BBB80E00895FE
S11300F0433061F427B381E090E002C0880F991F78
S11301006A95E2F7822B87BB80E00895413089F439
S113011027B381E090E002C0880F991F6A95E2F747
S1130120982F9095922397BB98B3892B88BB80E036
S11301300895423009F080C027B381E090E002C006
S1130140880F991F6A95E2F78095922F982397BBA1
S113015098B3892388BB80E00895433061F424B3C5
S113016081E090E002C0880F991F6A95E2F7822B24
S113017084BB80E00895413089F424B381E090E0A9
S113018002C0880F991F6A95E2F7982F90959223E1
S113019094BB95B3892B85BB80E00895423009F068
S11301A04DC024B381E090E002C0880F991F6A9586
S11301B0E2F78095922F982394BB95B3892385BB4E
S11301C080E00895433061F421B381E090E002C0FF
S11301D0880F991F6A95E2F7822B81BB80E008950E
S11301E0413089F421B381E090E002C0880F991F67
S11301F06A95E2F7982F9095922391BB92B3892B3D
S113020082BB80E008954230D9F421B381E090E0CC
S113021002C0880F991F6A95E2F78095922F982360
S113022091BB92B3892382BB80E0089582E0089554
S113023083E0089581E0089581E0089581E00895C0
S113024081E00895683008F075C0813011F130F014
S11302508230D1F1833009F452C06EC0442361F07E
S11302602BB381E090E002C0880F991F6A95E2F7F2
S1130270822B8BBB80E008952BB381E090E002C019
S1130280880F991F6A95E2F7809582238BBB80E0E3
S11302900895442361F028B381E090E002C0880F00
S11302A0991F6A95E2F7822B88BB80E0089528B3F2
S11302B081E090E002C0880F991F6A95E2F780956B
S11302C0822388BB80E00895442361F025B381E054
S11302D090E002C0880F991F6A95E2F7822B85BBD4
S11302E080E0089525B381E090E002C0880F991F53
S11302F06A95E2F78095822385BB80E008954423C4
S113030061F022B381E090E002C0880F991F6A95E2
S1130310E2F7822B82BB80E0089522B381E090E073
S113032002C0880F991F6A95E2F78095822382BBE9
S113033080E0089582E0089583E008956830D8F558
S113034041155105D1F1813091F028F08230D9F076
S1130350833029F134C089B390E002C09595879524
S11303606A95E2F78170FA01808380E0089586B38C
S113037090E002C0959587956A95E2F78170FA013D
S1130380808380E0089583B390E002C095958795BB
S11303906A95E2F78170FA01808380E0089580B362
S11303A090E002C0959587956A95E2F78170FA010D
S11303B0808380E0089582E0089582E0089583E0D8
S11303C00895CF93DF931F92CDB7DEB743E062E089
S11303D081E00E94360041E061E081E00E94360045
S11303E01982AE014F5F5F4F61E081E00E949E0180
S11303F08981811106C041E062E081E00E9422010E
S113040005C040E062E081E00E9422012FE38DE01C
S113041093E0215080409040E1F700C00000E0CF1D
S1070420F894FFCF7A
S9030000FC
