:100000000C942A000C9434000C9434000C943400AA
:100010000C9434000C9434000C9434000C94340090
:100020000C9434000C9434000C9434000C94340080
:100030000C9434000C9434000C9434000C94340070
:100040000C9434000C9434000C9434000C94340060
:100050000C94340011241FBECFE5D8E0DEBFCDBF25
:100060000E9436000C944C000C94000087B3816011
:1000700087BB88B3816088BB8FE493EC0197F1F76D
:1000800000C0000088B38E7F88BB8FE493EC01979B
:0C009000F1F700C00000EDCFF894FFCFA6
:00000001FF
