S00C00006C6162332E73726563B6
S11300000C942A000C943F000C943F000C943F0085
S11300100C943F000C943F000C943F000C943F0060
S11300200C943F000C943F000C943F000C943F0050
S11300300C943F000C943F000C943F000C943F0040
S11300400C943F000C943F000C943F000C943F0030
S11300500C943F0011241FBECFE5D8E0DEBFCDBF16
S113006010E0A0E6B0E0E0ECF4E002C005900D92F0
S1130070A03CB107D9F70E941C020C945E020C94B8
S11300800000683008F0DDC08130E9F138F08230DA
S113009009F46EC0833009F4A0C0D5C0433061F4C4
S11300A02AB381E090E002C0880F991F6A95E2F7B5
S11300B0822B8ABB80E00895413089F42AB381E021
S11300C090E002C0880F991F6A95E2F7982F9095E7
S11300D092239ABB9BB3892B8BBB80E0089542305B
S11300E009F0B3C02AB381E090E002C0880F991FE1
S11300F06A95E2F78095922F98239ABB9BB3892344
S11301008BBB80E00895433061F427B381E090E035
S113011002C0880F991F6A95E2F7822B87BB80E0A3
S11301200895413089F427B381E090E002C0880F3C
S1130130991F6A95E2F7982F9095922397BB98B3ED
S1130140892B88BB80E00895423009F080C027B332
S113015081E090E002C0880F991F6A95E2F78095CC
S1130160922F982397BB98B3892388BB80E0089586
S1130170433061F424B381E090E002C0880F991FFA
S11301806A95E2F7822B84BB80E00895413089F4BC
S113019024B381E090E002C0880F991F6A95E2F7CA
S11301A0982F9095922394BB95B3892B85BB80E0BF
S11301B00895423009F04DC024B381E090E002C0BC
S11301C0880F991F6A95E2F78095922F982394BB24
S11301D095B3892385BB80E00895433061F421B34E
S11301E081E090E002C0880F991F6A95E2F7822BA4
S11301F081BB80E00895413089F421B381E090E02F
S113020002C0880F991F6A95E2F7982F9095922360
S113021091BB92B3892B82BB80E008954230D9F41C
S113022021B381E090E002C0880F991F6A95E2F73C
S11302308095922F982391BB92B3892382BB80E04F
S1130240089582E0089583E0089581E0089581E0AF
S1130250089581E0089581E00895CF93C0E00FC030
S1130260EC2FF0E0CF01880F991FE80FF91FE05A37
S1130270FF4F4281618180810E944100CF5FC03283
S113028078F3CF910895813001F130F08230B1F1EB
S1130290833009F44CC00895442359F02BB381E012
S11302A090E002C0880F991F6A95E2F7822B8BBBFE
S11302B008952BB381E090E002C0880F991F6A95DE
S11302C0E2F7809582238BBB0895442359F028B329
S11302D081E090E002C0880F991F6A95E2F7822BB3
S11302E088BB089528B381E090E002C0880F991F6D
S11302F06A95E2F78095822388BB0895442359F0D8
S113030025B381E090E002C0880F991F6A95E2F757
S1130310822B85BB089525B381E090E002C0880F4D
S1130320991F6A95E2F78095822385BB089544233B
S113033059F022B381E090E002C0880F991F6A95BA
S1130340E2F7822B82BB089522B381E090E002C0E1
S1130350880F991F6A95E2F78095822382BB0895DE
S11303606830D8F541155105D1F1813091F028F06C
S11303708230D9F0833029F134C089B390E002C0CF
S1130380959587956A95E2F78170FA01808380E0FC
S1130390089586B390E002C0959587956A95E2F733
S11303A08170FA01808380E0089583B390E002C0F5
S11303B0959587956A95E2F78170FA01808380E0CC
S11303C0089580B390E002C0959587956A95E2F709
S11303D08170FA01808380E0089582E0089582E0CC
S11303E0089583E008950F931F93CF93DF9300D074
S11303F0CDB7DEB7182F062FAE014F5F5F4F0E94B7
S1130400B0012FE38DE093E0215080409040E1F76C
S113041000C00000AE014E5F5F4F602F812F0E942D
S1130420B00189819A81891381E00F900F90DF9147
S1130430CF911F910F9108950E942D0160E081E0FA
S11304400E94F301182F61E081E00E94F301D82F8C
S113045062E081E00E94F301C82F111106C041E05F
S113046060E080E00E94430105C040E060E080E07D
S11304700E944301D11106C041E061E080E00E9486
S1130480430105C040E061E080E00E944301C111E6
S113049006C041E062E080E00E94430105C040E004
S11304A062E080E00E9443012FE38DE093E021505D
S11304B080409040E1F700C00000C0CFF894FFCF27
S11304C0000003000103000203000303000403000F
S11304D005030006030007030100010101010102F5
S11304E001010301010401010501010601010701E4
S11304F002000302010302020302030302040302D3
S113050005030206030207030300010301010302BA
S113051001030301030401030501030601030701A9
S9030000FC
