S00C00006C6162352E73726563B4
S113000045C0000058C0000056C0000054C00000A5
S113001052C0000050C000004EC000004CC00000A0
S11300204AC0000048C0000046C0000044C00000B0
S113003042C0000040C000003EC000003CC00000C0
S11300403AC0000038C0000036C0000034C00000D0
S113005032C0000030C000002EC000002CC00000E0
S11300602AC0000028C0000026C0000024C00000F0
S113007022C0000020C000001EC000001CC0000000
S11300801AC0000018C0000016C0000011241FBED2
S1130090CFEFD0E1DEBFCDBF11E0A0E0B1E0E8E8F2
S11300A0F4E000E00BBF02C007900D92AC30B10742
S11300B0D9F7F2D0E7C1A4CF813001F130F082301A
S11300C0B1F1833009F44CC00895442359F02BB3A3
S11300D081E090E002C0880F991F6A95E2F7822BB5
S11300E08BBB08952BB381E090E002C0880F991F69
S11300F06A95E2F7809582238BBB0895442359F0D7
S113010028B381E090E002C0880F991F6A95E2F756
S1130110822B88BB089528B381E090E002C0880F49
S1130120991F6A95E2F78095822388BB089544233A
S113013059F025B381E090E002C0880F991F6A95B9
S1130140E2F7822B85BB089525B381E090E002C0DD
S1130150880F991F6A95E2F78095822385BB0895DD
S1130160442359F022B381E090E002C0880F991F24
S11301706A95E2F7822B82BB089522B381E090E076
S113018002C0880F991F6A95E2F78095822382BB8B
S113019008956830D8F541155105D1F1813091F0B9
S11301A028F08230D9F0833029F134C089B390E04B
S11301B002C0959587956A95E2F78170FA0180836C
S11301C080E0089586B390E002C0959587956A957E
S11301D0E2F78170FA01808380E0089583B390E0B0
S11301E002C0959587956A95E2F78170FA0180833C
S11301F080E0089580B390E002C0959587956A9554
S1130200E2F78170FA01808380E0089582E0089526
S113021082E0089583E00895CF93C0E00DC0EC2FF1
S1130220F0E0EE0FFF1FE050FF4F80818F7061E020
S113023070E090E062D0CF5FC33088F3CF9108952F
S1130240282F22952F70982F9F70833008F56230E5
S113025008F5E82FF0E0EE0FFF1FE050FF4F81811B
S1130260811109C0462F50E0692F70E0822F90E081
S113027023DF80E0089541E050E0662311F040E080
S113028050E0692F70E0822F90E016DF80E008953F
S113029081E0089582E00895CF93DF931F92CDB754
S11302A0DEB7BADFBBD01982BE016F5F7F4F80E03B
S11302B090E0C7D0892BC1F7BE016F5F7F4F80E00C
S11302C090E0BFD0892B81F789818111EDCF61E066
S11302D070E081E090E0B4DFBE016F5F7F4F80E0AB
S11302E090E0AFD0019701F789818130E9F660E0B1
S11302F070E081E090E0A4DFD7CF982F92959F70B3
S11303008F70623008F086C0913039F138F0923045
S113031009F442C0933009F45EC07EC0613071F4C8
S11303204AB321E030E0B90102C0660F771F8A9515
S1130330E2F7CB01842B8ABB80E008954AB321E025
S113034030E0B90102C0660F771F8A95E2F7CB014E
S1130350809584238ABB80E00895613071F447B3AB
S113036021E030E0B90102C0660F771F8A95E2F7F9
S1130370CB01842B87BB80E0089547B321E030E0B4
S1130380B90102C0660F771F8A95E2F7CB01809509
S1130390842387BB80E00895613071F444B321E085
S11303A030E0B90102C0660F771F8A95E2F7CB01EE
S11303B0842B84BB80E0089544B321E030E0B9018C
S11303C002C0660F771F8A95E2F7CB0180958423DC
S11303D084BB80E00895613071F441B321E030E0E2
S11303E0B90102C0660F771F8A95E2F7CB01842B0F
S11303F081BB80E0089541B321E030E0B90102C03F
S1130400660F771F8A95E2F7CB018095842381BB21
S113041080E0089587E0089586E00895CF93C0E0D2
S11304200CC0EC2FF0E0EE0FFF1FEA5FFE4F80815F
S113043060E070E090E061DFCF5FC33090F3CF9174
S11304400895282F22952F70982F9F708330A0F441
S11304506115710599F0E82FF0E0EE0FFF1FEA5FD8
S1130460FE4F818181110CC0AB01692F70E0822F96
S113047090E08FDE80E0089582E0089582E00895A0
S10B048081E00895F894FFCF18
S10F048800010101020100000200030059
S9030000FC
