:100000000C942A000C943F000C943F000C943F0089
:100010000C943F000C943F000C943F000C943F0064
:100020000C943F000C943F000C943F000C943F0054
:100030000C943F000C943F000C943F000C943F0044
:100040000C943F000C943F000C943F000C943F0034
:100050000C943F0011241FBECFE5D8E0DEBFCDBF1A
:1000600010E0A0E6B0E0E8E4F5E002C005900D92F3
:10007000A037B107D9F70E942B010C94A2020C946F
:1000800000004423D9F1413009F074C0813091F06F
:1000900028F08230D9F0833029F16EC02BB381E093
:1000A00090E002C0880F991F6A95E2F7822B8BBB04
:1000B00080E0089528B381E090E002C0880F991F86
:1000C0006A95E2F7822B88BB80E0089525B381E032
:1000D00090E002C0880F991F6A95E2F7822B85BBDA
:1000E00080E0089522B381E090E002C0880F991F5C
:1000F0006A95E2F7822B82BB80E00895813099F007
:1001000028F08230E9F0833041F138C02BB381E030
:1001100090E002C0880F991F6A95E2F780958223CC
:100120008BBB80E0089528B381E090E002C0880F87
:10013000991F6A95E2F78095822388BB80E0089535
:1001400025B381E090E002C0880F991F6A95E2F71D
:100150008095822385BB80E0089522B381E090E002
:1001600002C0880F991F6A95E2F78095822382BBAF
:1001700080E0089581E0089581E0089581E0089588
:10018000813091F028F08230D9F0833029F130C0ED
:1001900089B390E002C0959587956A95E2F78170E2
:1001A000FA01808380E0089586B390E002C09595BF
:1001B00087956A95E2F78170FA01808380E008955F
:1001C00083B390E002C0959587956A95E2F78170B8
:1001D000FA01808380E0089580B390E002C0959595
:1001E00087956A95E2F78170FA01808380E008952F
:1001F00081E00895CF93C0E00BC0EC2FF0E0EE0F4C
:10020000FF1FE05AFF4F61E080810E947601CF5FBF
:10021000C33098F3CF91089590E01AC0292F30E0B1
:10022000F901EE0FFF1FE05AFF4F518158130FC025
:10023000462F220F331FF901E05AFF4F8081682FAC
:100240006F7082958F700E94410081E008959F5FDA
:10025000933020F30895CF93DF931F92CDB7DEB78D
:100260000E94FA000E945F0260E080E00E940C01A0
:1002700060E081E00E940C0160E082E00E940C01DD
:10028000BE016F5F7F4F80E00E94740289818130E0
:1002900029F461E080E00E940C0104C060E080E08D
:1002A0000E940C01BE016F5F7F4F81E00E947402CB
:1002B0008981813021F461E00E940C0104C060E07A
:1002C00081E00E940C01BE016F5F7F4F82E00E94BF
:1002D00074028981813029F461E082E00E940C017E
:1002E000CFCF60E082E00E940C01CACF982F929598
:1002F0009F708F70633008F0D6C09130D9F138F01C
:10030000923009F46AC0933009F49AC0CEC06130CB
:1003100091F018F06230E1F0CAC04AB321E030E059
:10032000B90102C0660F771F8A95E2F7CB0180956D
:1003300084238ABBB7C04AB321E030E0B90102C0D0
:10034000660F771F8A95E2F7CB01842B8ABBAAC080
:100350004AB321E030E0B90102C0660F771F8A95E9
:10036000E2F7CB01962F909594239ABB9BB3892BF0
:100370008BBB98C0613091F018F06230E1F099C009
:1003800047B321E030E0B90102C0660F771F8A95BC
:10039000E2F7CB018095842387BB84C047B321E07B
:1003A00030E0B90102C0660F771F8A95E2F7CB01F2
:1003B000842B87BB77C047B321E030E0B90102C08E
:1003C000660F771F8A95E2F7CB01962F90959423BD
:1003D00097BB98B3892B88BB65C0613091F018F04A
:1003E0006230E1F068C044B321E030E0B90102C0FE
:1003F000660F771F8A95E2F7CB018095842384BB33
:1004000051C044B321E030E0B90102C0660F771F4C
:100410008A95E2F7CB01842B84BB44C044B321E02E
:1004200030E0B90102C0660F771F8A95E2F7CB0171
:10043000962F9095942394BB95B3892B85BB32C09E
:10044000613091F018F06230E1F037C041B321E043
:1004500030E0B90102C0660F771F8A95E2F7CB0141
:100460008095842381BB1EC041B321E030E0B901F7
:1004700002C0660F771F8A95E2F7CB01842B81BB00
:1004800011C041B321E030E0B90102C0660F771F0F
:100490008A95E2F7CB01962F9095942391BB92B366
:1004A000892B82BB089587E0089586E0089587E050
:1004B000089587E0089587E0089587E00895CF9331
:1004C000C0E00EC0EC2FF0E0CF01880F991FE80FBD
:1004D000F91FEA59FF4F628181810E947601CF5F47
:1004E000C33080F3CF91089590E024C0292F30E0ED
:1004F000F901EE0FFF1FE20FF31FEA59FF4F508182
:10050000581317C0F901EE0FFF1F2E0F3F1FF901FF
:10051000EA59FF4F9181892F82958F709F708430A7
:1005200068F4983068F4AB01692F0E94C00081E044
:1005300008959F5F9330D0F280E0089580E00895A1
:0805400080E00895F894FFCF5C
:100548001000110112020000000101000202000067
:00000001FF
