S01000006B657970616464642E73726563CE
S11300000C942A000C943F000C943F000C943F0085
S11300100C943F000C943F000C943F000C943F0060
S11300200C943F000C943F000C943F000C943F0050
S11300300C943F000C943F000C943F000C943F0040
S11300400C943F000C943F000C943F000C943F0030
S11300500C943F0011241FBECFE5D8E0DEBFCDBF16
S113006010E0A0E6B0E0E2E7F7E002C005900D92F0
S1130070AA37B107D9F70E9466030C94B7030C940E
S11300800000683008F07CC0843008F07BC0442352
S1130090D9F1413009F078C0813091F028F08230F4
S11300A0D9F0833029F172C02BB381E090E002C013
S11300B0880F991F6A95E2F7822B8BBB80E0089525
S11300C028B381E090E002C0880F991F6A95E2F797
S11300D0822B88BB80E0089525B381E090E002C0C4
S11300E0880F991F6A95E2F7822B85BB80E00895FB
S11300F022B381E090E002C0880F991F6A95E2F76D
S1130100822B82BB80E00895813099F028F0823000
S1130110E9F0833041F13CC02BB381E090E002C0B0
S1130120880F991F6A95E2F7809582238BBB80E044
S1130130089528B381E090E002C0880F991F6A9562
S1130140E2F78095822388BB80E0089525B381E09F
S113015090E002C0880F991F6A95E2F78095822388
S113016085BB80E0089522B381E090E002C0880F4F
S1130170991F6A95E2F78095822382BB80E00895F7
S113018082E0089583E0089581E0089581E0089570
S113019081E00895413029F0E0F1423009F485C04E
S11301A0D0C0813091F028F08230D9F0833029F129
S11301B0CAC02AB381E090E002C0880F991F6A95F3
S11301C0E2F7822B8ABB80E0089527B381E090E0B8
S11301D002C0880F991F6A95E2F7822B87BB80E0E3
S11301E0089524B381E090E002C0880F991F6A95B6
S11301F0E2F7822B84BB80E0089521B381E090E094
S113020002C0880F991F6A95E2F7822B81BB80E0B8
S113021008958130B9F028F0823029F18330A1F1BA
S113022094C02AB381E090E002C0880F991F6A95B8
S1130230E2F78095922F98239ABB9BB389238BBBBB
S113024080E0089527B381E090E002C0880F991FF1
S11302506A95E2F78095922F982397BB98B38923E8
S113026088BB80E0089524B381E090E002C0880F49
S1130270991F6A95E2F78095922F982394BB95B3C2
S1130280892385BB80E0089521B381E090E002C01A
S1130290880F991F6A95E2F78095922F982391BB56
S11302A092B3892382BB80E008958130B9F028F0AD
S11302B0823029F18330A1F14AC02AB381E090E071
S11302C002C0880F991F6A95E2F7982F90959223A0
S11302D09ABB9BB3892B8BBB80E0089527B381E045
S11302E090E002C0880F991F6A95E2F7982F9095C5
S11302F0922397BB98B3892B88BB80E0089524B3DD
S113030081E090E002C0880F991F6A95E2F7982F68
S11303109095922394BB95B3892B85BB80E0089577
S113032021B381E090E002C0880F991F6A95E2F73B
S1130330982F9095922391BB92B3892B82BB80E036
S1130340089581E0089581E0089581E0089581E0B1
S113035008958430A0F4813049F028F0823049F0C7
S1130360833051F00EC06BBB80E0089568BB80E021
S1130370089565BB80E0089562BB80E0089581E044
S1130380089581E00895843008F078C06F3009F44E
S113039055C018F4662331F073C0603F79F16F3FA4
S11303A0A9F06EC0813049F028F0823049F08330E2
S11303B051F068C01ABA80E0089517BA80E0089531
S11303C014BA80E0089511BA80E00895813051F0A4
S11303D028F0823059F0833069F056C08FEF8ABB21
S11303E080E008958FEF87BB80E008958FEF84BB92
S11303F080E008958FEF81BB80E00895813061F043
S113040028F0823079F0833099F040C08FE08ABBC5
S113041080EF8BBB80E008958FE087BB80EF88BBC3
S113042080E008958FE084BB80EF85BB80E0089571
S11304308FE081BB80EF82BB80E00895813061F062
S113044028F0823079F0833099F022C080EF8ABBA3
S11304508FE08BBB80E0089580EF87BB8FE088BB83
S113046080E0089580EF84BB8FE085BB80E0089531
S113047080EF81BB8FE082BB80E0089581E0089526
S113048080E0089581E0089581E0089581E0089571
S113049081E00895813091F028F08230D9F08330E2
S11304A029F130C089B390E002C0959587956A958B
S11304B0E2F78170FA01808380E0089586B390E0CA
S11304C002C0959587956A95E2F78170FA01808359
S11304D080E0089583B390E002C0959587956A956E
S11304E0E2F78170FA01808380E0089580B390E0A0
S11304F002C0959587956A95E2F78170FA01808329
S113050080E0089581E008956FE082E00E94C301D5
S11305100895BF92CF92DF92EF92FF920F931F93B1
S1130520CF93DF931F92CDB7DEB7BB24BA9400E01C
S113053043C0C02ED12CF601E059FF4F658140E045
S113054082E00E94410010E029C0E12EF12CF70165
S1130550E059FF4F6181AE014F5F5F4F82E00E941F
S11305604A028981811119C00AC0F701E059FF4F7D
S11305706181AE014F5F5F4F82E00E944A02898130
S1130580882399F3F701EE0FFF1FEE0FFF1FE05AC8
S1130590FF4FEC0DFD1DB08003C01F5F1430A8F2A7
S11305A0F601E059FF4F658141E082E00E9441007D
S11305B08FEFB81204C00F5F043008F4BACF8B2D4C
S11305C00F90DF91CF911F910F91FF90EF90DF90EB
S11305D0CF90BF90089541E062E081E00E94410025
S11305E0000040E062E081E00E94410089EF90E079
S11305F00197F1F700C000000895CF93C82F40E0A1
S113060060E081E00E94410040E061E081E00E94FE
S113061041006C2F80E00E94A9010E94EB0283EF4D
S113062091E00197F1F700C00000CF91089561E0D7
S113063080E00E94710341E060E081E00E94CA0012
S113064041E061E081E00E94CA0041E062E081E0B3
S11306500E94CA0041E060E081E00E94410041E064
S113066061E081E00E94410041E062E081E00E949B
S1130670410083ED90E30197F1F700C0000088E3A7
S11306800E94FD028FE00E94FD0281E00E94FD02B3
S113069086E00E94FD020895CF93C82F41E060E0F8
S11306A081E00E94410040E061E081E00E9441005D
S11306B06C2F80E00E94A9010E94EB0289EF90E078
S11306C00197F1F700C00000CF9108950E9417032D
S11306D00E9484020E9489028F3FE1F30E944C032E
S11306E0F9CF8430C0F5813091F028F08230D9F010
S11306F0833029F132C0662319F0613021F02FC014
S11307001ABA80E008958FEF8ABB80E008956623CB
S113071019F0613021F025C017BA80E008958FEFF9
S113072087BB80E00895662319F0613021F01BC077
S113073014BA80E008958FEF84BB80E008956623A7
S113074019F0613021F011C011BA80E008958FEFE3
S113075081BB80E0089583E0089583E0089587E0F5
S1130760089587E0089587E0089587E00895F89450
S1050770FFCFB5
S11307723738392F3435362A3132332D6F303D2B09
S10D0782020001020304050607004B
S9030000FC
