:100000000C942A000C9434000C9434000C943400AA
:100010000C9434000C9434000C9434000C94340090
:100020000C9434000C9434000C9434000C94340080
:100030000C9434000C9434000C9434000C94340070
:100040000C9434000C9434000C9434000C94340060
:100050000C94340011241FBECFE5D8E0DEBFCDBF25
:100060000E9436000C9460000C9400008FEF8ABB55
:1000700084B38E7F84BB85B3816085BB80E090E0D4
:10008000989910C081110EC098990CC081E08BBB6B
:100090002FE734E84EE1215030404040E1F700C006
:1000A00000001BBA882361F32FE734E84EE12150AA
:1000B00030404040E1F700C000009F5F9BBBE0CFB5
:0400C000F894FFCFE2
:00000001FF
