S00C00006C6162362E73726563B3
S113000045C0000058C0000056C0000054C00000A5
S113001052C0000050C000004EC000004CC00000A0
S11300204AC0000048C0000046C0000044C00000B0
S113003042C0000040C000003EC000003CC00000C0
S11300403AC0000038C0000036C0000034C00000D0
S113005032C0000030C000002EC000002CC00000E0
S11300602AC0000028C0000026C0000024C00000F0
S113007022C0000020C000001EC000001CC0000000
S11300801AC0000018C0000016C0000011241FBED2
S1130090CFEFD0E1DEBFCDBF11E0A0E0B1E0EAE5F3
S11300A0F4E000E00BBF02C007900D92A632B10746
S11300B0D9F76FD0D0C1A4CF813001F130F08230B4
S11300C0B1F1833009F44CC00895442359F02BB3A3
S11300D081E090E002C0880F991F6A95E2F7822BB5
S11300E08BBB08952BB381E090E002C0880F991F69
S11300F06A95E2F7809582238BBB0895442359F0D7
S113010028B381E090E002C0880F991F6A95E2F756
S1130110822B88BB089528B381E090E002C0880F49
S1130120991F6A95E2F78095822388BB089544233A
S113013059F025B381E090E002C0880F991F6A95B9
S1130140E2F7822B85BB089525B381E090E002C0DD
S1130150880F991F6A95E2F78095822385BB0895DD
S1130160442359F022B381E090E002C0880F991F24
S11301706A95E2F7822B82BB089522B381E090E076
S113018002C0880F991F6A95E2F78095822382BB8B
S1130190089588D082ED94E0DCD0FFCF982F92951B
S11301A09F708F70623008F079C09130D1F030F0D8
S11301B09230B1F1933009F452C072C0613071F4DD
S11301C04AB321E030E0B90102C0660F771F8A9577
S11301D0E2F7CB01842B8ABB80E008958AB380E0E8
S11301E00895613071F447B321E030E0B90102C0F1
S11301F0660F771F8A95E2F7CB01842B87BB80E0DB
S1130200089547B321E030E0B90102C0660F771FBB
S11302108A95E2F7CB018095842387BB80E008951B
S1130220613071F444B321E030E0B90102C0660FDB
S1130230771F8A95E2F7CB01842B84BB80E0089575
S113024044B321E030E0B90102C0660F771F8A95FC
S1130250E2F7CB018095842384BB80E0089561306C
S113026071F441B321E030E0B90102C0660F771F99
S11302708A95E2F7CB01842B81BB80E0089541B3DA
S113028021E030E0B90102C0660F771F8A95E2F7DA
S1130290CB018095842381BB80E0089587E0089595
S11302A086E00895CF93DF93D0E01AC08D2F90E0BD
S11302B0FC01EE0FFF1FEE0FFF1FEE0FFF1FE81BE9
S11302C0F90BE65FFE4FEC0FF11D808161E070E0F9
S11302D090E064DFCF5F01C0C0E0C73038F3DF5F78
S11302E0D430D0F3DF91CF9108951F93CF93DF9350
S11302F0843058F56A3048F5D82FE62FF0E0E05006
S1130300FF4F1081C0E01FC0412F50E00C2E02C0EF
S1130310559547950A94E2F741708D2F90E0FC01C2
S1130320EE0FFF1FEE0FFF1FEE0FFF1FE81BF90B71
S1130330E65FFE4FEC0FF11D8081682F6F70829590
S11303408F70BADECF5FC730F8F2DF91CF911F9183
S113035008950F931F93CF93DF93AC0110E0C0E097
S1130360D0E031C09E01220F331FCE01880F991FA8
S1130370880F991F880F991FE901C80FD91F9A0187
S1130380ADECBCEC59D09695879596958795969546
S113039087959C01220F331F880F991F880F991F7F
S11303A0880F991F820F931F9A01281B390BC20FC4
S11303B0D31F9A0141D0AC01569547955695479560
S11303C0569547951F5F4115510561F600E02CC015
S11303D0011730F59E01ADECBCEC2ED0AC01569566
S11303E047955695479556954795CA01880F991F85
S11303F0440F551F440F551F440F551F480F591FD5
S1130400CE01841B950BAC0117D0EC01D695C79592
S1130410D695C795D695C795642F802F66DF03C000
S113042060E0802F62DF0F5F043090F280E0DF91A4
S1130430CF911F910F910895A29FB001B39FC00166
S1130440A39F700D811D1124911DB29F700D811DFC
S10D04501124911D0895F894FFCFC4
S113045A3F065B4F666D7D077F6F0001020304054B
S113046A06101112131415162021222324252630CE
S109047A31323334353643
S9030000FC
