S00C00006C6162362E73726563B3
S11300000C942A000C943F000C943F000C943F0085
S11300100C943F000C943F000C943F000C943F0060
S11300200C943F000C943F000C943F000C943F0050
S11300300C943F000C943F000C943F000C943F0040
S11300400C943F000C943F000C943F000C943F0030
S11300500C943F0011241FBECFE5D8E0DEBFCDBF16
S113006010E0A0E6B0E0E8E5F4E002C005900D92EF
S1130070A638B107D9F70E94C0000C942A020C9448
S113008000004423D9F1413009F074C0813091F06B
S113009028F08230D9F0833029F16EC02BB381E08F
S11300A090E002C0880F991F6A95E2F7822B8BBB00
S11300B080E0089528B381E090E002C0880F991F82
S11300C06A95E2F7822B88BB80E0089525B381E02E
S11300D090E002C0880F991F6A95E2F7822B85BBD6
S11300E080E0089522B381E090E002C0880F991F58
S11300F06A95E2F7822B82BB80E00895813099F003
S113010028F08230E9F0833041F138C02BB381E02C
S113011090E002C0880F991F6A95E2F780958223C8
S11301208BBB80E0089528B381E090E002C0880F83
S1130130991F6A95E2F78095822388BB80E0089531
S113014025B381E090E002C0880F991F6A95E2F719
S11301508095822385BB80E0089522B381E090E0FE
S113016002C0880F991F6A95E2F78095822382BBAB
S113017080E0089581E0089581E0089581E0089584
S11301800E944B0182ED94E00E94A201FFCF982FC0
S113019092959F708F70623008F079C09130D1F0E1
S11301A030F09230B1F1933009F452C072C0613032
S11301B071F44AB321E030E0B90102C0660F771F41
S11301C08A95E2F7CB01842B8ABB80E008958AB339
S11301D080E00895613071F447B321E030E0B90163
S11301E002C0660F771F8A95E2F7CB01842B87BB89
S11301F080E0089547B321E030E0B90102C0660F02
S1130200771F8A95E2F7CB018095842387BB80E032
S11302100895613071F444B321E030E0B90102C0C3
S1130220660F771F8A95E2F7CB01842B84BB80E0AD
S1130230089544B321E030E0B90102C0660F771F8E
S11302408A95E2F7CB018095842384BB80E00895EE
S1130250613071F441B321E030E0B90102C0660FAE
S1130260771F8A95E2F7CB01842B81BB80E0089548
S113027041B321E030E0B90102C0660F771F8A95CF
S1130280E2F7CB018095842381BB80E0089587E069
S1130290089586E00895CF93DF93D0E019C08D2FA1
S11302A090E0FC01EE0FFF1FEE0FFF1FEE0FFF1F8C
S11302B0E81BF90BE659FF4FEC0FF11D61E080815B
S11302C00E94C700CF5F01C0C0E0C73040F3DF5FCA
S11302D0D430D0F3DF91CF9108951F93CF93DF9360
S11302E0843060F56A3050F5D82FE62FF0E0E05AFC
S11302F0FF4F1081C0E020C0412F50E00C2E02C0FF
S1130300559547950A94E2F741708D2F90E0FC01D2
S1130310EE0FFF1FEE0FFF1FEE0FFF1FE81BF90B81
S1130320E659FF4FEC0FF11D8081682F6F708295A5
S11303308F700E944100CF5FC730F0F2DF91CF9100
S11303401F9108950F931F93CF93DF93AC0110E097
S1130350C0E0D0E033C09E01220F331FCE01880FCE
S1130360991F880F991F880F991FE901C80FD91F7A
S11303709A01ADECBCEC0E941B029695879596956C
S11303808795969587959C01220F331F880F991F97
S1130390880F991F880F991F820F931F9A01281B9A
S11303A0390BC20FD31F9A010E941B02AC01569550
S11303B0479556954795569547951F5F41155105A5
S11303C051F600E030C0011748F59E01ADECBCECDD
S11303D00E941B02AC015695479556954795569534
S11303E04795CA01880F991F440F551F440F551F85
S11303F0440F551F480F591FCE01841B950BAC01A8
S11304000E941B02EC01D695C795D695C795D69543
S1130410C795642F802F0E946D0104C060E0802F77
S11304200E946D010F5F043070F280E0DF91CF9184
S11304301F910F910895A29FB001B39FC001A39F84
S1130440700D811D1124911DB29F700D811D112409
S10B0450911D0895F894FFCFFB
S11304583F065B4F666D7D077F6F0001020304054D
S113046806101112131415162021222324252630D0
S109047831323334353645
S9030000FC
