S00E000054494D4552302E7372656365
S11300000C942A000C9447000C9447000C9447006D
S11300100C9447000C9447000C9447000C94470040
S11300200C9447000C9447000C9441020C94180261
S11300300C9447000C9447000C9447000C94470020
S11300400C9447000C9447000C9447000C94470010
S11300500C94470011241FBECFE5D8E0DEBFCDBF0E
S113006010E0A0E6B0E0ECE2F5E002C005900D92ED
S1130070A036B107D9F720E0A0E6B0E001C01D9298
S1130080A436B207E1F70E94D9010C9494020C94AF
S11300900000683008F07CC0843008F07BC0442342
S11300A0D9F1413009F078C0813091F028F08230E4
S11300B0D9F0833029F172C02BB381E090E002C003
S11300C0880F991F6A95E2F7822B8BBB80E0089515
S11300D028B381E090E002C0880F991F6A95E2F787
S11300E0822B88BB80E0089525B381E090E002C0B4
S11300F0880F991F6A95E2F7822B85BB80E00895EB
S113010022B381E090E002C0880F991F6A95E2F75C
S1130110822B82BB80E00895813099F028F08230F0
S1130120E9F0833041F13CC02BB381E090E002C0A0
S1130130880F991F6A95E2F7809582238BBB80E034
S1130140089528B381E090E002C0880F991F6A9552
S1130150E2F78095822388BB80E0089525B381E08F
S113016090E002C0880F991F6A95E2F78095822378
S113017085BB80E0089522B381E090E002C0880F3F
S1130180991F6A95E2F78095822382BB80E00895E7
S113019082E0089583E0089581E0089581E0089560
S11301A081E00895413029F0E0F1423009F485C03E
S11301B0D0C0813091F028F08230D9F0833029F119
S11301C0CAC02AB381E090E002C0880F991F6A95E3
S11301D0E2F7822B8ABB80E0089527B381E090E0A8
S11301E002C0880F991F6A95E2F7822B87BB80E0D3
S11301F0089524B381E090E002C0880F991F6A95A6
S1130200E2F7822B84BB80E0089521B381E090E083
S113021002C0880F991F6A95E2F7822B81BB80E0A8
S113022008958130B9F028F0823029F18330A1F1AA
S113023094C02AB381E090E002C0880F991F6A95A8
S1130240E2F78095922F98239ABB9BB389238BBBAB
S113025080E0089527B381E090E002C0880F991FE1
S11302606A95E2F78095922F982397BB98B38923D8
S113027088BB80E0089524B381E090E002C0880F39
S1130280991F6A95E2F78095922F982394BB95B3B2
S1130290892385BB80E0089521B381E090E002C00A
S11302A0880F991F6A95E2F78095922F982391BB46
S11302B092B3892382BB80E008958130B9F028F09D
S11302C0823029F18330A1F14AC02AB381E090E061
S11302D002C0880F991F6A95E2F7982F9095922390
S11302E09ABB9BB3892B8BBB80E0089527B381E035
S11302F090E002C0880F991F6A95E2F7982F9095B5
S1130300922397BB98B3892B88BB80E0089524B3CC
S113031081E090E002C0880F991F6A95E2F7982F58
S11303209095922394BB95B3892B85BB80E0089567
S113033021B381E090E002C0880F991F6A95E2F72B
S1130340982F9095922391BB92B3892B82BB80E026
S1130350089581E0089581E0089581E0089581E0A1
S1130360089541E060E081E00E9449002FEF81EEB2
S113037094E0215080409040E1F700C0000040E04C
S113038060E081E00E944900089541E061E081E07D
S11303900E9449002FEF81EE94E02150804090406C
S11303A0E1F700C0000040E061E081E00E94490004
S11303B0089541E060E081E00E94D20041E061E004
S11303C081E00E94D20085E00E946C0281EB91E002
S11303D00E9404020E9486020E947C026DE784E06F
S11303E00E94730285EC91E00E940E020E948D022D
S11303F00E947C022FEF81EE94E0215080409040D7
S1130400E1F700C00000F6CF009731F0909363004D
S11304108093620080E0089588E00895009731F0A9
S1130420909361008093600080E0089588E00895CF
S11304301F920F920FB60F9211242F933F934F9355
S11304405F936F937F938F939F93AF93BF93EF9338
S1130450FF93E0916200F0916300309709F00995F1
S1130460FF91EF91BF91AF919F918F917F916F9188
S11304705F914F913F912F910F900FBE0F901F905E
S113048018951F920F920FB60F9211242F933F933A
S11304904F935F936F937F938F939F93AF93BF9388
S11304A0EF93FF93E0916000F0916100309709F0C1
S11304B00995FF91EF91BF91AF919F918F917F919A
S11304C06F915F914F913F912F910F900FBE0F90BD
S11304D01F90189578940895883018F483BF80E0AD
S11304E0089583E00895883028F4886083BF65BF49
S11304F080E0089583E0089583B7877029F483B773
S1130500816083BF80E0089582E0089587B78160A9
S113051087BF0E946A0280E0089587B7826087BF20
S10F05200E946A0280E00895F894FFCF66
S9030000FC
